{
  "contractName": "BasicVoteReveal",
  "abi": [
    {
      "constant": true,
      "inputs": [
        {
          "name": "",
          "type": "uint256"
        }
      ],
      "name": "polls",
      "outputs": [
        {
          "name": "title",
          "type": "string"
        },
        {
          "name": "description",
          "type": "string"
        },
        {
          "name": "option1",
          "type": "string"
        },
        {
          "name": "option2",
          "type": "string"
        },
        {
          "name": "option1Votes",
          "type": "uint256"
        },
        {
          "name": "option2Votes",
          "type": "uint256"
        },
        {
          "name": "commitEnding",
          "type": "uint256"
        },
        {
          "name": "revealEnding",
          "type": "uint256"
        }
      ],
      "payable": false,
      "stateMutability": "view",
      "type": "function"
    },
    {
      "constant": true,
      "inputs": [
        {
          "name": "_pollID",
          "type": "uint256"
        }
      ],
      "name": "getPollStrings",
      "outputs": [
        {
          "name": "",
          "type": "string"
        },
        {
          "name": "",
          "type": "string"
        },
        {
          "name": "",
          "type": "string"
        },
        {
          "name": "",
          "type": "string"
        }
      ],
      "payable": false,
      "stateMutability": "view",
      "type": "function"
    },
    {
      "constant": true,
      "inputs": [
        {
          "name": "_pollID",
          "type": "uint256"
        }
      ],
      "name": "getPollData",
      "outputs": [
        {
          "name": "",
          "type": "uint256"
        },
        {
          "name": "",
          "type": "uint256"
        },
        {
          "name": "",
          "type": "uint256"
        },
        {
          "name": "",
          "type": "uint256"
        }
      ],
      "payable": false,
      "stateMutability": "view",
      "type": "function"
    },
    {
      "constant": false,
      "inputs": [
        {
          "name": "_title",
          "type": "string"
        },
        {
          "name": "_description",
          "type": "string"
        },
        {
          "name": "_option1",
          "type": "string"
        },
        {
          "name": "_option2",
          "type": "string"
        },
        {
          "name": "commitEnding",
          "type": "uint256"
        },
        {
          "name": "revealEnding",
          "type": "uint256"
        }
      ],
      "name": "setPoll",
      "outputs": [
        {
          "name": "",
          "type": "uint256"
        }
      ],
      "payable": false,
      "stateMutability": "nonpayable",
      "type": "function"
    },
    {
      "constant": true,
      "inputs": [
        {
          "name": "_pollNumber",
          "type": "uint256"
        },
        {
          "name": "_option",
          "type": "uint256"
        }
      ],
      "name": "getCommitHash",
      "outputs": [
        {
          "name": "",
          "type": "bytes32"
        }
      ],
      "payable": false,
      "stateMutability": "view",
      "type": "function"
    },
    {
      "constant": false,
      "inputs": [
        {
          "name": "_pollNumber",
          "type": "uint256"
        },
        {
          "name": "_vote",
          "type": "bytes32"
        }
      ],
      "name": "commitVote",
      "outputs": [
        {
          "name": "",
          "type": "bool"
        }
      ],
      "payable": false,
      "stateMutability": "nonpayable",
      "type": "function"
    },
    {
      "constant": false,
      "inputs": [
        {
          "name": "_pollNumber",
          "type": "uint256"
        },
        {
          "name": "_vote",
          "type": "bytes32"
        },
        {
          "name": "_option",
          "type": "uint256"
        }
      ],
      "name": "revealVote",
      "outputs": [
        {
          "name": "",
          "type": "bool"
        }
      ],
      "payable": false,
      "stateMutability": "nonpayable",
      "type": "function"
    }
  ],
  "bytecode": "0x608060405234801561001057600080fd5b50611352806100206000396000f300608060405260043610610083576000357c0100000000000000000000000000000000000000000000000000000000900463ffffffff16806302da502a146100885780635a0d42d3146100e55780639da69180146102cf578063ac2f007414610322578063bc215a8e14610528578063dcbb3ded1461057e578063dffc093e146106e1575b600080fd5b34801561009457600080fd5b506100cb60048036038101908080359060200190929190803560001916906020019092919080359060200190929190505050610734565b604051808215151515815260200191505060405180910390f35b3480156100f157600080fd5b506101106004803603810190808035906020019092919050505061095e565b6040518080602001806020018060200180602001858103855289818151815260200191508051906020019080838360005b8381101561015c578082015181840152602081019050610141565b50505050905090810190601f1680156101895780820380516001836020036101000a031916815260200191505b50858103845288818151815260200191508051906020019080838360005b838110156101c25780820151818401526020810190506101a7565b50505050905090810190601f1680156101ef5780820380516001836020036101000a031916815260200191505b50858103835287818151815260200191508051906020019080838360005b8381101561022857808201518184015260208101905061020d565b50505050905090810190601f1680156102555780820380516001836020036101000a031916815260200191505b50858103825286818151815260200191508051906020019080838360005b8381101561028e578082015181840152602081019050610273565b50505050905090810190601f1680156102bb5780820380516001836020036101000a031916815260200191505b509850505050505050505060405180910390f35b3480156102db57600080fd5b50610308600480360381019080803590602001909291908035600019169060200190929190505050610c63565b604051808215151515815260200191505060405180910390f35b34801561032e57600080fd5b5061034d60048036038101908080359060200190929190505050610cf3565b604051808060200180602001806020018060200189815260200188815260200187815260200186815260200185810385528d818151815260200191508051906020019080838360005b838110156103b1578082015181840152602081019050610396565b50505050905090810190601f1680156103de5780820380516001836020036101000a031916815260200191505b5085810384528c818151815260200191508051906020019080838360005b838110156104175780820151818401526020810190506103fc565b50505050905090810190601f1680156104445780820380516001836020036101000a031916815260200191505b5085810383528b818151815260200191508051906020019080838360005b8381101561047d578082015181840152602081019050610462565b50505050905090810190601f1680156104aa5780820380516001836020036101000a031916815260200191505b5085810382528a818151815260200191508051906020019080838360005b838110156104e35780820151818401526020810190506104c8565b50505050905090810190601f1680156105105780820380516001836020036101000a031916815260200191505b509c5050505050505050505050505060405180910390f35b34801561053457600080fd5b5061055360048036038101908080359060200190929190505050610faa565b6040518085815260200184815260200183815260200182815260200194505050505060405180910390f35b34801561058a57600080fd5b506106cb600480360381019080803590602001908201803590602001908080601f0160208091040260200160405190810160405280939291908181526020018383808284378201915050505050509192919290803590602001908201803590602001908080601f0160208091040260200160405190810160405280939291908181526020018383808284378201915050505050509192919290803590602001908201803590602001908080601f0160208091040260200160405190810160405280939291908181526020018383808284378201915050505050509192919290803590602001908201803590602001908080601f01602080910402602001604051908101604052809392919081815260200183838082843782019150505050505091929192908035906020019092919080359060200190929190505050611043565b6040518082815260200191505060405180910390f35b3480156106ed57600080fd5b506107166004803603810190808035906020019092919080359060200190929190505050611164565b60405180826000191660001916815260200191505060405180910390f35b600080338584604051602001808473ffffffffffffffffffffffffffffffffffffffff1673ffffffffffffffffffffffffffffffffffffffff166c0100000000000000000000000002815260140183815260200182815260200193505050506040516020818303038152906040526040518082805190602001908083835b6020831015156107d757805182526020820191506020810190506020830392506107b2565b6001836020036101000a038019825116818451168082178552505050505050905001915050604051809103902090508060001916846000191614151561081c57600080fd5b6001151560008681548110151561082f57fe5b90600052602060002090600a02016008016000866000191660001916815260200190815260200160002060009054906101000a900460ff16151514151561087557600080fd5b6000151560008681548110151561088857fe5b90600052602060002090600a02016009016000866000191660001916815260200190815260200160002060009054906101000a900460ff1615151415156108ce57600080fd5b600183141561090b5760016000868154811015156108e857fe5b90600052602060002090600a02016004016000828254019250508190555061093b565b600160008681548110151561091c57fe5b90600052602060002090600a0201600501600082825401925050819055505b60008581548110151561094a57fe5b906000526020600020905050509392505050565b60608060608060008581548110151561097357fe5b90600052602060002090600a020160000160008681548110151561099357fe5b90600052602060002090600a02016001016000878154811015156109b357fe5b90600052602060002090600a02016002016000888154811015156109d357fe5b90600052602060002090600a0201600301838054600181600116156101000203166002900480601f016020809104026020016040519081016040528092919081815260200182805460018160011615610100020316600290048015610a795780601f10610a4e57610100808354040283529160200191610a79565b820191906000526020600020905b815481529060010190602001808311610a5c57829003601f168201915b50505050509350828054600181600116156101000203166002900480601f016020809104026020016040519081016040528092919081815260200182805460018160011615610100020316600290048015610b155780601f10610aea57610100808354040283529160200191610b15565b820191906000526020600020905b815481529060010190602001808311610af857829003601f168201915b50505050509250818054600181600116156101000203166002900480601f016020809104026020016040519081016040528092919081815260200182805460018160011615610100020316600290048015610bb15780601f10610b8657610100808354040283529160200191610bb1565b820191906000526020600020905b815481529060010190602001808311610b9457829003601f168201915b50505050509150808054600181600116156101000203166002900480601f016020809104026020016040519081016040528092919081815260200182805460018160011615610100020316600290048015610c4d5780601f10610c2257610100808354040283529160200191610c4d565b820191906000526020600020905b815481529060010190602001808311610c3057829003601f168201915b5050505050905093509350935093509193509193565b600042600084815481101515610c7557fe5b90600052602060002090600a0201600601541115610ce8576001600084815481101515610c9e57fe5b90600052602060002090600a02016008016000846000191660001916815260200190815260200160002060006101000a81548160ff02191690831515021790555060019050610ced565b600090505b92915050565b600081815481101515610d0257fe5b90600052602060002090600a0201600091509050806000018054600181600116156101000203166002900480601f016020809104026020016040519081016040528092919081815260200182805460018160011615610100020316600290048015610dae5780601f10610d8357610100808354040283529160200191610dae565b820191906000526020600020905b815481529060010190602001808311610d9157829003601f168201915b505050505090806001018054600181600116156101000203166002900480601f016020809104026020016040519081016040528092919081815260200182805460018160011615610100020316600290048015610e4c5780601f10610e2157610100808354040283529160200191610e4c565b820191906000526020600020905b815481529060010190602001808311610e2f57829003601f168201915b505050505090806002018054600181600116156101000203166002900480601f016020809104026020016040519081016040528092919081815260200182805460018160011615610100020316600290048015610eea5780601f10610ebf57610100808354040283529160200191610eea565b820191906000526020600020905b815481529060010190602001808311610ecd57829003601f168201915b505050505090806003018054600181600116156101000203166002900480601f016020809104026020016040519081016040528092919081815260200182805460018160011615610100020316600290048015610f885780601f10610f5d57610100808354040283529160200191610f88565b820191906000526020600020905b815481529060010190602001808311610f6b57829003601f168201915b5050505050908060040154908060050154908060060154908060070154905088565b600080600080600085815481101515610fbf57fe5b90600052602060002090600a020160040154600086815481101515610fe057fe5b90600052602060002090600a02016005015460008781548110151561100157fe5b90600052602060002090600a02016006015460008881548110151561102257fe5b90600052602060002090600a02016007015493509350935093509193509193565b600061104d61123b565b6101006040519081016040528089815260200188815260200187815260200186815260200160008152602001600081526020018581526020018481525090506000819080600181540180825580915050906001820390600052602060002090600a02016000909192909190915060008201518160000190805190602001906110d6929190611281565b5060208201518160010190805190602001906110f3929190611281565b506040820151816002019080519060200190611110929190611281565b50606082015181600301908051906020019061112d929190611281565b506080820151816004015560a0820151816005015560c0820151816006015560e08201518160070155505050509695505050505050565b6000338383604051602001808473ffffffffffffffffffffffffffffffffffffffff1673ffffffffffffffffffffffffffffffffffffffff166c0100000000000000000000000002815260140183815260200182815260200193505050506040516020818303038152906040526040518082805190602001908083835b60208310151561120657805182526020820191506020810190506020830392506111e1565b6001836020036101000a0380198251168184511680821785525050505050509050019150506040518091039020905092915050565b6101006040519081016040528060608152602001606081526020016060815260200160608152602001600081526020016000815260200160008152602001600081525090565b828054600181600116156101000203166002900490600052602060002090601f016020900481019282601f106112c257805160ff19168380011785556112f0565b828001600101855582156112f0579182015b828111156112ef5782518255916020019190600101906112d4565b5b5090506112fd9190611301565b5090565b61132391905b8082111561131f576000816000905550600101611307565b5090565b905600a165627a7a72305820ee32b0915cb152348cc233ef694484e2b4ebee341c415b4090288840c90e11c10029",
  "source": "pragma solidity 0.4.25;\n\n\n/**\n  @title Partial Lock and Commit Reveal Voting scheme without using tokens\n */\ncontract BasicVoteReveal {\n    struct Poll {\n        string title;\n        string description;\n        string option1;\n        string option2;\n        uint option1Votes;\n        uint option2Votes;\n        uint commitEnding;\n        uint revealEnding;\n        mapping(bytes32 => bool) votes;\n        mapping(bytes32 => bool) revealed;\n    }\n\n    Poll[] public polls;\n\n    function getPollStrings(uint _pollID) \n    public\n    view\n    returns(\n        string,\n        string,\n        string,\n        string\n    )\n    {\n        return (\n            polls[_pollID].title,\n            polls[_pollID].description,\n            polls[_pollID].option1,\n            polls[_pollID].option2\n        );\n    }\n\n    function getPollData(uint _pollID) \n    public\n    view\n    returns(\n        uint,\n        uint,\n        uint,\n        uint\n    )\n    {\n        return (\n            polls[_pollID].option1Votes,\n            polls[_pollID].option2Votes,\n            polls[_pollID].commitEnding,\n            polls[_pollID].revealEnding\n        );\n    }\n\n    function setPoll(\n        string _title,\n        string _description,\n        string _option1,\n        string _option2,\n        uint commitEnding,\n        uint revealEnding\n    ) public returns (uint) {\n        Poll memory _poll = Poll({\n            title: _title,\n            description: _description,\n            option1: _option1,\n            option2: _option2,\n            option1Votes: 0,\n            option2Votes: 0,\n            commitEnding: commitEnding,\n            revealEnding: revealEnding\n        });\n\n        polls.push(_poll);\n    }\n\n    function getCommitHash(\n        uint _pollNumber,\n        uint _option\n    ) public view returns (bytes32) {\n        return keccak256(\n            abi.encodePacked(\n                msg.sender,\n                _pollNumber,\n                _option\n            )\n        );\n    }\n\n    function commitVote(\n        uint _pollNumber,\n        bytes32 _vote\n    ) public returns (bool) {\n        if (polls[_pollNumber].commitEnding > now) {\n            polls[_pollNumber].votes[_vote] = true;\n            return true;\n        } else {\n            return false;\n        }\n    }\n\n    function revealVote(\n        uint _pollNumber,\n        bytes32 _vote,\n        uint _option\n    ) public returns (bool) {\n        bytes32 _newVote = keccak256(\n            abi.encodePacked(\n                msg.sender,\n                _pollNumber,\n                _option\n            )\n        );\n        require(_vote == _newVote);\n        require(polls[_pollNumber].votes[_vote] == true);\n        require(polls[_pollNumber].revealed[_vote] == false);\n\n        if (_option == 1) {\n            polls[_pollNumber].option1Votes += 1;\n        } else {\n            polls[_pollNumber].option2Votes += 1;\n        }\n        polls[_pollNumber].option1Votes;\n    }\n}\n",
  "sourcePath": "/Users/carlosgonzalezjuarez/Documents/Development/Vue/initialVueDApp/contracts/BasicVoteReveal.sol",
  "compiler": {
    "name": "solc",
    "version": "0.4.25+commit.59dbf8f1.Emscripten.clang"
  },
  "schemaVersion": "3.0.0-beta.1",
  "updatedAt": "2018-10-05T12:45:32.671Z"
}