{
  "contractName": "SupplyChain",
  "abi": [
    {
      "constant": true,
      "inputs": [
        {
          "name": "",
          "type": "uint256"
        }
      ],
      "name": "packages",
      "outputs": [
        {
          "name": "sender",
          "type": "address"
        },
        {
          "name": "receiver",
          "type": "address"
        },
        {
          "name": "packageName",
          "type": "string"
        },
        {
          "name": "senderName",
          "type": "string"
        },
        {
          "name": "originAddress",
          "type": "string"
        },
        {
          "name": "finalAddress",
          "type": "string"
        }
      ],
      "payable": false,
      "stateMutability": "view",
      "type": "function"
    },
    {
      "constant": true,
      "inputs": [
        {
          "name": "_package",
          "type": "uint256"
        }
      ],
      "name": "getPackageStrings",
      "outputs": [
        {
          "name": "",
          "type": "string"
        },
        {
          "name": "",
          "type": "string"
        },
        {
          "name": "",
          "type": "string"
        },
        {
          "name": "",
          "type": "string"
        }
      ],
      "payable": false,
      "stateMutability": "view",
      "type": "function"
    },
    {
      "constant": true,
      "inputs": [
        {
          "name": "_package",
          "type": "uint256"
        }
      ],
      "name": "getPackageData",
      "outputs": [
        {
          "name": "",
          "type": "address"
        },
        {
          "name": "",
          "type": "address"
        },
        {
          "name": "",
          "type": "address[9]"
        }
      ],
      "payable": false,
      "stateMutability": "view",
      "type": "function"
    },
    {
      "constant": false,
      "inputs": [
        {
          "name": "_packageName",
          "type": "string"
        },
        {
          "name": "_senderName",
          "type": "string"
        },
        {
          "name": "_originAddress",
          "type": "string"
        },
        {
          "name": "_finalAddress",
          "type": "string"
        },
        {
          "name": "_receiver",
          "type": "address"
        }
      ],
      "name": "createPackage",
      "outputs": [
        {
          "name": "",
          "type": "uint256"
        }
      ],
      "payable": false,
      "stateMutability": "nonpayable",
      "type": "function"
    },
    {
      "constant": false,
      "inputs": [
        {
          "name": "_package",
          "type": "uint256"
        },
        {
          "name": "_pos",
          "type": "uint256"
        }
      ],
      "name": "addTransporter",
      "outputs": [],
      "payable": false,
      "stateMutability": "nonpayable",
      "type": "function"
    }
  ],
  "bytecode": "0x608060405234801561001057600080fd5b506112d4806100206000396000f30060806040526004361061006d576000357c0100000000000000000000000000000000000000000000000000000000900463ffffffff16806310cd520c14610072578063152b1712146101e1578063241884d1146103cb5780636b37601914610402578063c216212a146104d1575b600080fd5b34801561007e57600080fd5b506101cb600480360381019080803590602001908201803590602001908080601f0160208091040260200160405190810160405280939291908181526020018383808284378201915050505050509192919290803590602001908201803590602001908080601f0160208091040260200160405190810160405280939291908181526020018383808284378201915050505050509192919290803590602001908201803590602001908080601f0160208091040260200160405190810160405280939291908181526020018383808284378201915050505050509192919290803590602001908201803590602001908080601f0160208091040260200160405190810160405280939291908181526020018383808284378201915050505050509192919290803573ffffffffffffffffffffffffffffffffffffffff169060200190929190505050610721565b6040518082815260200191505060405180910390f35b3480156101ed57600080fd5b5061020c600480360381019080803590602001909291905050506108eb565b6040518080602001806020018060200180602001858103855289818151815260200191508051906020019080838360005b8381101561025857808201518184015260208101905061023d565b50505050905090810190601f1680156102855780820380516001836020036101000a031916815260200191505b50858103845288818151815260200191508051906020019080838360005b838110156102be5780820151818401526020810190506102a3565b50505050905090810190601f1680156102eb5780820380516001836020036101000a031916815260200191505b50858103835287818151815260200191508051906020019080838360005b83811015610324578082015181840152602081019050610309565b50505050905090810190601f1680156103515780820380516001836020036101000a031916815260200191505b50858103825286818151815260200191508051906020019080838360005b8381101561038a57808201518184015260208101905061036f565b50505050905090810190601f1680156103b75780820380516001836020036101000a031916815260200191505b509850505050505050505060405180910390f35b3480156103d757600080fd5b506104006004803603810190808035906020019092919080359060200190929190505050610bf0565b005b34801561040e57600080fd5b5061042d60048036038101908080359060200190929190505050610c70565b604051808473ffffffffffffffffffffffffffffffffffffffff1673ffffffffffffffffffffffffffffffffffffffff1681526020018373ffffffffffffffffffffffffffffffffffffffff1673ffffffffffffffffffffffffffffffffffffffff16815260200182600960200280838360005b838110156104bc5780820151818401526020810190506104a1565b50505050905001935050505060405180910390f35b3480156104dd57600080fd5b506104fc60048036038101908080359060200190929190505050610d9f565b604051808773ffffffffffffffffffffffffffffffffffffffff1673ffffffffffffffffffffffffffffffffffffffff1681526020018673ffffffffffffffffffffffffffffffffffffffff1673ffffffffffffffffffffffffffffffffffffffff16815260200180602001806020018060200180602001858103855289818151815260200191508051906020019080838360005b838110156105ac578082015181840152602081019050610591565b50505050905090810190601f1680156105d95780820380516001836020036101000a031916815260200191505b50858103845288818151815260200191508051906020019080838360005b838110156106125780820151818401526020810190506105f7565b50505050905090810190601f16801561063f5780820380516001836020036101000a031916815260200191505b50858103835287818151815260200191508051906020019080838360005b8381101561067857808201518184015260208101905061065d565b50505050905090810190601f1680156106a55780820380516001836020036101000a031916815260200191505b50858103825286818151815260200191508051906020019080838360005b838110156106de5780820151818401526020810190506106c3565b50505050905090810190601f16801561070b5780820380516001836020036101000a031916815260200191505b509a505050505050505050505060405180910390f35b600061072b61108a565b6107336110ae565b60e0604051908101604052803373ffffffffffffffffffffffffffffffffffffffff1681526020018573ffffffffffffffffffffffffffffffffffffffff1681526020018381526020018981526020018881526020018781526020018681525090506000819080600181540180825580915050906001820390600052602060002090600f02016000909192909190915060008201518160000160006101000a81548173ffffffffffffffffffffffffffffffffffffffff021916908373ffffffffffffffffffffffffffffffffffffffff16021790555060208201518160010160006101000a81548173ffffffffffffffffffffffffffffffffffffffff021916908373ffffffffffffffffffffffffffffffffffffffff16021790555060408201518160020190600961086892919061111f565b50606082015181600b01908051906020019061088592919061119c565b50608082015181600c0190805190602001906108a292919061119c565b5060a082015181600d0190805190602001906108bf92919061119c565b5060c082015181600e0190805190602001906108dc92919061119c565b50505050505095945050505050565b60608060608060008581548110151561090057fe5b90600052602060002090600f0201600b0160008681548110151561092057fe5b90600052602060002090600f0201600c0160008781548110151561094057fe5b90600052602060002090600f0201600d0160008881548110151561096057fe5b90600052602060002090600f0201600e01838054600181600116156101000203166002900480601f016020809104026020016040519081016040528092919081815260200182805460018160011615610100020316600290048015610a065780601f106109db57610100808354040283529160200191610a06565b820191906000526020600020905b8154815290600101906020018083116109e957829003601f168201915b50505050509350828054600181600116156101000203166002900480601f016020809104026020016040519081016040528092919081815260200182805460018160011615610100020316600290048015610aa25780601f10610a7757610100808354040283529160200191610aa2565b820191906000526020600020905b815481529060010190602001808311610a8557829003601f168201915b50505050509250818054600181600116156101000203166002900480601f016020809104026020016040519081016040528092919081815260200182805460018160011615610100020316600290048015610b3e5780601f10610b1357610100808354040283529160200191610b3e565b820191906000526020600020905b815481529060010190602001808311610b2157829003601f168201915b50505050509150808054600181600116156101000203166002900480601f016020809104026020016040519081016040528092919081815260200182805460018160011615610100020316600290048015610bda5780601f10610baf57610100808354040283529160200191610bda565b820191906000526020600020905b815481529060010190602001808311610bbd57829003601f168201915b5050505050905093509350935093509193509193565b600a81101515610bff57600080fd5b33600083815481101515610c0f57fe5b90600052602060002090600f020160020182600981101515610c2d57fe5b0160006101000a81548173ffffffffffffffffffffffffffffffffffffffff021916908373ffffffffffffffffffffffffffffffffffffffff1602179055505050565b600080610c7b61108a565b600084815481101515610c8a57fe5b90600052602060002090600f020160000160009054906101000a900473ffffffffffffffffffffffffffffffffffffffff16600085815481101515610ccb57fe5b90600052602060002090600f020160010160009054906101000a900473ffffffffffffffffffffffffffffffffffffffff16600086815481101515610d0c57fe5b90600052602060002090600f020160020180600980602002604051908101604052809291908260098015610d8b576020028201915b8160009054906101000a900473ffffffffffffffffffffffffffffffffffffffff1673ffffffffffffffffffffffffffffffffffffffff1681526020019060010190808311610d41575b505050505090509250925092509193909250565b600081815481101515610dae57fe5b90600052602060002090600f02016000915090508060000160009054906101000a900473ffffffffffffffffffffffffffffffffffffffff16908060010160009054906101000a900473ffffffffffffffffffffffffffffffffffffffff169080600b018054600181600116156101000203166002900480601f016020809104026020016040519081016040528092919081815260200182805460018160011615610100020316600290048015610ea65780601f10610e7b57610100808354040283529160200191610ea6565b820191906000526020600020905b815481529060010190602001808311610e8957829003601f168201915b50505050509080600c018054600181600116156101000203166002900480601f016020809104026020016040519081016040528092919081815260200182805460018160011615610100020316600290048015610f445780601f10610f1957610100808354040283529160200191610f44565b820191906000526020600020905b815481529060010190602001808311610f2757829003601f168201915b50505050509080600d018054600181600116156101000203166002900480601f016020809104026020016040519081016040528092919081815260200182805460018160011615610100020316600290048015610fe25780601f10610fb757610100808354040283529160200191610fe2565b820191906000526020600020905b815481529060010190602001808311610fc557829003601f168201915b50505050509080600e018054600181600116156101000203166002900480601f0160208091040260200160405190810160405280929190818152602001828054600181600116156101000203166002900480156110805780601f1061105557610100808354040283529160200191611080565b820191906000526020600020905b81548152906001019060200180831161106357829003601f168201915b5050505050905086565b61012060405190810160405280600990602082028038833980820191505090505090565b6101e060405190810160405280600073ffffffffffffffffffffffffffffffffffffffff168152602001600073ffffffffffffffffffffffffffffffffffffffff1681526020016110fd61121c565b8152602001606081526020016060815260200160608152602001606081525090565b826009810192821561118b579160200282015b8281111561118a5782518260006101000a81548173ffffffffffffffffffffffffffffffffffffffff021916908373ffffffffffffffffffffffffffffffffffffffff16021790555091602001919060010190611132565b5b5090506111989190611240565b5090565b828054600181600116156101000203166002900490600052602060002090601f016020900481019282601f106111dd57805160ff191683800117855561120b565b8280016001018555821561120b579182015b8281111561120a5782518255916020019190600101906111ef565b5b5090506112189190611283565b5090565b61012060405190810160405280600990602082028038833980820191505090505090565b61128091905b8082111561127c57600081816101000a81549073ffffffffffffffffffffffffffffffffffffffff021916905550600101611246565b5090565b90565b6112a591905b808211156112a1576000816000905550600101611289565b5090565b905600a165627a7a72305820ca633930439e3ceb01827f1eefa593042b783bbe7f3aa49ec203ed7ea47ce4eb0029",
  "source": "pragma solidity 0.4.25;\n\n\ncontract SupplyChain {\n    struct Package {\n        address sender;\n        address receiver;\n        address[9] transporters;\n        string packageName;\n        string senderName;\n        string originAddress;\n        string finalAddress;\n    }\n\n    Package[] public packages;\n\n    function getPackageStrings(uint _package) \n    public\n    view\n    returns(\n        string,\n        string,\n        string,\n        string\n    )\n    {\n        return (\n            packages[_package].packageName,\n            packages[_package].senderName,\n            packages[_package].originAddress,\n            packages[_package].finalAddress\n        );\n    }\n\n    function getPackageData(uint _package) \n    public\n    view\n    returns(\n        address,\n        address,\n        address[9]\n    )\n    {\n        return (\n            packages[_package].sender,\n            packages[_package].receiver,\n            packages[_package].transporters\n        );\n    }\n\n    function createPackage(\n        string _packageName,\n        string _senderName,\n        string _originAddress,\n        string _finalAddress,\n        address _receiver\n    ) public returns (uint) {\n        address[9] memory _transporters;\n        Package memory _package = Package({\n            sender: msg.sender,\n            receiver: _receiver,\n            transporters: _transporters,\n            packageName: _packageName,\n            senderName: _senderName,\n            originAddress: _originAddress,\n            finalAddress: _finalAddress\n        });\n\n        packages.push(_package);\n    }\n\n    function addTransporter(uint _package, uint _pos) public {\n        require(_pos < 10);\n        packages[_package].transporters[_pos] = msg.sender;\n    }\n}\n",
  "sourcePath": "/Users/carlosgonzalezjuarez/Documents/Development/Vue/initialVueDApp/contracts/SupplyChain.sol",
  "compiler": {
    "name": "solc",
    "version": "0.4.25+commit.59dbf8f1.Emscripten.clang"
  },
  "schemaVersion": "3.0.0-beta.1",
  "updatedAt": "2018-10-05T15:04:31.238Z"
}