{
  "contractName": "SupplyChain",
  "abi": [
    {
      "constant": true,
      "inputs": [
        {
          "name": "",
          "type": "uint256"
        }
      ],
      "name": "packages",
      "outputs": [
        {
          "name": "sender",
          "type": "address"
        },
        {
          "name": "receiver",
          "type": "address"
        },
        {
          "name": "packageName",
          "type": "string"
        },
        {
          "name": "senderName",
          "type": "string"
        },
        {
          "name": "receiverName",
          "type": "string"
        },
        {
          "name": "originAddress",
          "type": "string"
        },
        {
          "name": "finalAddress",
          "type": "string"
        }
      ],
      "payable": false,
      "stateMutability": "view",
      "type": "function"
    },
    {
      "constant": true,
      "inputs": [
        {
          "name": "_package",
          "type": "uint256"
        }
      ],
      "name": "getPackageStrings",
      "outputs": [
        {
          "name": "",
          "type": "string"
        },
        {
          "name": "",
          "type": "string"
        },
        {
          "name": "",
          "type": "string"
        },
        {
          "name": "",
          "type": "string"
        },
        {
          "name": "",
          "type": "string"
        }
      ],
      "payable": false,
      "stateMutability": "view",
      "type": "function"
    },
    {
      "constant": true,
      "inputs": [
        {
          "name": "_package",
          "type": "uint256"
        }
      ],
      "name": "getPackageData",
      "outputs": [
        {
          "name": "",
          "type": "address"
        },
        {
          "name": "",
          "type": "address"
        },
        {
          "name": "",
          "type": "address[9]"
        }
      ],
      "payable": false,
      "stateMutability": "view",
      "type": "function"
    },
    {
      "constant": false,
      "inputs": [
        {
          "name": "_packageName",
          "type": "string"
        },
        {
          "name": "_senderName",
          "type": "string"
        },
        {
          "name": "_receiverName",
          "type": "string"
        },
        {
          "name": "_originAddress",
          "type": "string"
        },
        {
          "name": "_finalAddress",
          "type": "string"
        },
        {
          "name": "_receiver",
          "type": "address"
        }
      ],
      "name": "createPackage",
      "outputs": [
        {
          "name": "",
          "type": "uint256"
        }
      ],
      "payable": false,
      "stateMutability": "nonpayable",
      "type": "function"
    },
    {
      "constant": false,
      "inputs": [
        {
          "name": "_package",
          "type": "uint256"
        },
        {
          "name": "_pos",
          "type": "uint256"
        }
      ],
      "name": "addTransporter",
      "outputs": [],
      "payable": false,
      "stateMutability": "nonpayable",
      "type": "function"
    }
  ],
  "bytecode": "0x608060405234801561001057600080fd5b5061157f806100206000396000f30060806040526004361061006d576000357c0100000000000000000000000000000000000000000000000000000000900463ffffffff168063152b171214610072578063241884d1146102c857806357b649e6146102ff5780636b376019146104b4578063c216212a14610583575b600080fd5b34801561007e57600080fd5b5061009d6004803603810190808035906020019092919050505061083f565b60405180806020018060200180602001806020018060200186810386528b818151815260200191508051906020019080838360005b838110156100ed5780820151818401526020810190506100d2565b50505050905090810190601f16801561011a5780820380516001836020036101000a031916815260200191505b5086810385528a818151815260200191508051906020019080838360005b83811015610153578082015181840152602081019050610138565b50505050905090810190601f1680156101805780820380516001836020036101000a031916815260200191505b50868103845289818151815260200191508051906020019080838360005b838110156101b957808201518184015260208101905061019e565b50505050905090810190601f1680156101e65780820380516001836020036101000a031916815260200191505b50868103835288818151815260200191508051906020019080838360005b8381101561021f578082015181840152602081019050610204565b50505050905090810190601f16801561024c5780820380516001836020036101000a031916815260200191505b50868103825287818151815260200191508051906020019080838360005b8381101561028557808201518184015260208101905061026a565b50505050905090810190601f1680156102b25780820380516001836020036101000a031916815260200191505b509a505050505050505050505060405180910390f35b3480156102d457600080fd5b506102fd6004803603810190808035906020019092919080359060200190929190505050610c06565b005b34801561030b57600080fd5b5061049e600480360381019080803590602001908201803590602001908080601f0160208091040260200160405190810160405280939291908181526020018383808284378201915050505050509192919290803590602001908201803590602001908080601f0160208091040260200160405190810160405280939291908181526020018383808284378201915050505050509192919290803590602001908201803590602001908080601f0160208091040260200160405190810160405280939291908181526020018383808284378201915050505050509192919290803590602001908201803590602001908080601f0160208091040260200160405190810160405280939291908181526020018383808284378201915050505050509192919290803590602001908201803590602001908080601f0160208091040260200160405190810160405280939291908181526020018383808284378201915050505050509192919290803573ffffffffffffffffffffffffffffffffffffffff169060200190929190505050610c86565b6040518082815260200191505060405180910390f35b3480156104c057600080fd5b506104df60048036038101908080359060200190929190505050610e76565b604051808473ffffffffffffffffffffffffffffffffffffffff1673ffffffffffffffffffffffffffffffffffffffff1681526020018373ffffffffffffffffffffffffffffffffffffffff1673ffffffffffffffffffffffffffffffffffffffff16815260200182600960200280838360005b8381101561056e578082015181840152602081019050610553565b50505050905001935050505060405180910390f35b34801561058f57600080fd5b506105ae60048036038101908080359060200190929190505050610fa5565b604051808873ffffffffffffffffffffffffffffffffffffffff1673ffffffffffffffffffffffffffffffffffffffff1681526020018773ffffffffffffffffffffffffffffffffffffffff1673ffffffffffffffffffffffffffffffffffffffff168152602001806020018060200180602001806020018060200186810386528b818151815260200191508051906020019080838360005b83811015610662578082015181840152602081019050610647565b50505050905090810190601f16801561068f5780820380516001836020036101000a031916815260200191505b5086810385528a818151815260200191508051906020019080838360005b838110156106c85780820151818401526020810190506106ad565b50505050905090810190601f1680156106f55780820380516001836020036101000a031916815260200191505b50868103845289818151815260200191508051906020019080838360005b8381101561072e578082015181840152602081019050610713565b50505050905090810190601f16801561075b5780820380516001836020036101000a031916815260200191505b50868103835288818151815260200191508051906020019080838360005b83811015610794578082015181840152602081019050610779565b50505050905090810190601f1680156107c15780820380516001836020036101000a031916815260200191505b50868103825287818151815260200191508051906020019080838360005b838110156107fa5780820151818401526020810190506107df565b50505050905090810190601f1680156108275780820380516001836020036101000a031916815260200191505b509c5050505050505050505050505060405180910390f35b606080606080606060008681548110151561085657fe5b9060005260206000209060100201600b0160008781548110151561087657fe5b9060005260206000209060100201600c0160008881548110151561089657fe5b9060005260206000209060100201600d016000898154811015156108b657fe5b9060005260206000209060100201600e0160008a8154811015156108d657fe5b9060005260206000209060100201600f01848054600181600116156101000203166002900480601f01602080910402602001604051908101604052809291908181526020018280546001816001161561010002031660029004801561097c5780601f106109515761010080835404028352916020019161097c565b820191906000526020600020905b81548152906001019060200180831161095f57829003601f168201915b50505050509450838054600181600116156101000203166002900480601f016020809104026020016040519081016040528092919081815260200182805460018160011615610100020316600290048015610a185780601f106109ed57610100808354040283529160200191610a18565b820191906000526020600020905b8154815290600101906020018083116109fb57829003601f168201915b50505050509350828054600181600116156101000203166002900480601f016020809104026020016040519081016040528092919081815260200182805460018160011615610100020316600290048015610ab45780601f10610a8957610100808354040283529160200191610ab4565b820191906000526020600020905b815481529060010190602001808311610a9757829003601f168201915b50505050509250818054600181600116156101000203166002900480601f016020809104026020016040519081016040528092919081815260200182805460018160011615610100020316600290048015610b505780601f10610b2557610100808354040283529160200191610b50565b820191906000526020600020905b815481529060010190602001808311610b3357829003601f168201915b50505050509150808054600181600116156101000203166002900480601f016020809104026020016040519081016040528092919081815260200182805460018160011615610100020316600290048015610bec5780601f10610bc157610100808354040283529160200191610bec565b820191906000526020600020905b815481529060010190602001808311610bcf57829003601f168201915b505050505090509450945094509450945091939590929450565b600a81101515610c1557600080fd5b33600083815481101515610c2557fe5b906000526020600020906010020160020182600981101515610c4357fe5b0160006101000a81548173ffffffffffffffffffffffffffffffffffffffff021916908373ffffffffffffffffffffffffffffffffffffffff1602179055505050565b6000610c9061132e565b610c98611352565b610100604051908101604052803373ffffffffffffffffffffffffffffffffffffffff1681526020018573ffffffffffffffffffffffffffffffffffffffff1681526020018381526020018a81526020018981526020018881526020018781526020018681525090506000819080600181540180825580915050906001820390600052602060002090601002016000909192909190915060008201518160000160006101000a81548173ffffffffffffffffffffffffffffffffffffffff021916908373ffffffffffffffffffffffffffffffffffffffff16021790555060208201518160010160006101000a81548173ffffffffffffffffffffffffffffffffffffffff021916908373ffffffffffffffffffffffffffffffffffffffff160217905550604082015181600201906009610dd49291906113ca565b50606082015181600b019080519060200190610df1929190611447565b50608082015181600c019080519060200190610e0e929190611447565b5060a082015181600d019080519060200190610e2b929190611447565b5060c082015181600e019080519060200190610e48929190611447565b5060e082015181600f019080519060200190610e65929190611447565b505050925050509695505050505050565b600080610e8161132e565b600084815481101515610e9057fe5b906000526020600020906010020160000160009054906101000a900473ffffffffffffffffffffffffffffffffffffffff16600085815481101515610ed157fe5b906000526020600020906010020160010160009054906101000a900473ffffffffffffffffffffffffffffffffffffffff16600086815481101515610f1257fe5b906000526020600020906010020160020180600980602002604051908101604052809291908260098015610f91576020028201915b8160009054906101000a900473ffffffffffffffffffffffffffffffffffffffff1673ffffffffffffffffffffffffffffffffffffffff1681526020019060010190808311610f47575b505050505090509250925092509193909250565b600081815481101515610fb457fe5b90600052602060002090601002016000915090508060000160009054906101000a900473ffffffffffffffffffffffffffffffffffffffff16908060010160009054906101000a900473ffffffffffffffffffffffffffffffffffffffff169080600b018054600181600116156101000203166002900480601f0160208091040260200160405190810160405280929190818152602001828054600181600116156101000203166002900480156110ac5780601f10611081576101008083540402835291602001916110ac565b820191906000526020600020905b81548152906001019060200180831161108f57829003601f168201915b50505050509080600c018054600181600116156101000203166002900480601f01602080910402602001604051908101604052809291908181526020018280546001816001161561010002031660029004801561114a5780601f1061111f5761010080835404028352916020019161114a565b820191906000526020600020905b81548152906001019060200180831161112d57829003601f168201915b50505050509080600d018054600181600116156101000203166002900480601f0160208091040260200160405190810160405280929190818152602001828054600181600116156101000203166002900480156111e85780601f106111bd576101008083540402835291602001916111e8565b820191906000526020600020905b8154815290600101906020018083116111cb57829003601f168201915b50505050509080600e018054600181600116156101000203166002900480601f0160208091040260200160405190810160405280929190818152602001828054600181600116156101000203166002900480156112865780601f1061125b57610100808354040283529160200191611286565b820191906000526020600020905b81548152906001019060200180831161126957829003601f168201915b50505050509080600f018054600181600116156101000203166002900480601f0160208091040260200160405190810160405280929190818152602001828054600181600116156101000203166002900480156113245780601f106112f957610100808354040283529160200191611324565b820191906000526020600020905b81548152906001019060200180831161130757829003601f168201915b5050505050905087565b61012060405190810160405280600990602082028038833980820191505090505090565b61020060405190810160405280600073ffffffffffffffffffffffffffffffffffffffff168152602001600073ffffffffffffffffffffffffffffffffffffffff1681526020016113a16114c7565b815260200160608152602001606081526020016060815260200160608152602001606081525090565b8260098101928215611436579160200282015b828111156114355782518260006101000a81548173ffffffffffffffffffffffffffffffffffffffff021916908373ffffffffffffffffffffffffffffffffffffffff160217905550916020019190600101906113dd565b5b50905061144391906114eb565b5090565b828054600181600116156101000203166002900490600052602060002090601f016020900481019282601f1061148857805160ff19168380011785556114b6565b828001600101855582156114b6579182015b828111156114b557825182559160200191906001019061149a565b5b5090506114c3919061152e565b5090565b61012060405190810160405280600990602082028038833980820191505090505090565b61152b91905b8082111561152757600081816101000a81549073ffffffffffffffffffffffffffffffffffffffff0219169055506001016114f1565b5090565b90565b61155091905b8082111561154c576000816000905550600101611534565b5090565b905600a165627a7a7230582042a9039a96d7429e6fb9e5f35f0a453ec74c5c5a56130354601d1cb5357d756a0029",
  "source": "pragma solidity ^0.4.24;\n\n\ncontract SupplyChain {\n    struct Package {\n        address sender;\n        address receiver;\n        address[9] transporters;\n        string packageName;\n        string senderName;\n        string receiverName;\n        string originAddress;\n        string finalAddress;\n    }\n\n    Package[] public packages;\n\n    function getPackageStrings(uint _package) \n    public\n    view\n    returns(\n        string,\n        string,\n        string,\n        string,\n        string\n    )\n    {\n        return (\n            packages[_package].packageName,\n            packages[_package].senderName,\n            packages[_package].receiverName,\n            packages[_package].originAddress,\n            packages[_package].finalAddress\n        );\n    }\n\n    function getPackageData(uint _package) \n    public\n    view\n    returns(\n        address,\n        address,\n        address[9]\n    )\n    {\n        return (\n            packages[_package].sender,\n            packages[_package].receiver,\n            packages[_package].transporters\n        );\n    }\n\n    function createPackage(\n        string _packageName,\n        string _senderName,\n        string _receiverName,\n        string _originAddress,\n        string _finalAddress,\n        address _receiver\n    ) public returns (uint) {\n        address[9] memory _transporters;\n        Package memory _package = Package({\n            sender: msg.sender,\n            receiver: _receiver,\n            transporters: _transporters,\n            packageName: _packageName,\n            senderName: _senderName,\n            receiverName: _receiverName,\n            originAddress: _originAddress,\n            finalAddress: _finalAddress\n        });\n\n        return packages.push(_package);\n    }\n\n    function addTransporter(uint _package, uint _pos) public {\n        require(_pos < 10);\n        packages[_package].transporters[_pos] = msg.sender;\n    }\n}\n",
  "sourcePath": "/Users/xpi2/Development/initialVueDapp/contracts/SupplyChain.sol",
  "compiler": {
    "name": "solc",
    "version": "0.4.24+commit.e67f0147.Emscripten.clang"
  },
  "schemaVersion": "3.0.0-beta.1",
  "updatedAt": "2018-10-06T09:24:50.501Z"
}